:020000040000FA
:060000000A128A110C280F
:10000800FE00030EF0000A08F1000A168A110A2EF3
:100018000A128A110F288313C230FD001530FE0022
:100028007030FF00A03084000A168A1128250A12B1
:100038008A116F30FD000730FE00FD30FF006C3084
:1000480084000A168A1128250A128A1183160313B6
:10005800C201C301C401C50183120313E001E10118
:10006800E201E301E401E501E601E701E801E90154
:10007800EA01EB01FA01FB0183010A128A15A02C9F
:1000880083120313DA000A168A1197260A128A11B4
:100098001230831203136D06031D53285428F029C8
:1000A8000A168A1117250A128A113530F60091307E
:1000B800F7008030F8000A168A11DB250A128A1127
:1000C8007B0883120313D4005407A03E84008313D3
:1000D8000008F600840A00088403F7008630F80058
:1000E8000A168A11DB250A128A112E30F600913081
:1000F800F700C030F8000A168A11DB250A128A11A7
:10010800C63083120313A0000A30F2000030F30057
:100118006B08D400D5015408F4005508F5000A12FC
:100128008A152D200A128A117208303E0A128A1185
:10013800E8270A128A11C73083120313A0000A3075
:10014800F2000030F3006B08D400D5015408F40025
:100158005508F5000A168A11ED260A128A11720846
:10016800303E0A128A11E8270A128A11C83083120F
:100178000313A0003A300A128A11E8270A128A11DA
:10018800C93083120313A0000A30F2000030F300D4
:100198006A08D400D5015408F4005508F5000A127D
:1001A8008A152D200A128A117208303E0A128A1105
:1001B800E8270A128A11CA3083120313A0000A30F2
:1001C800F2000030F3006A08D400D5015408F400A6
:1001D8005508F5000A168A11ED260A128A117208C6
:1001E800303E0A128A11E8270A128A111730F600DF
:1001F8009130F7009530F8000A168A11DB250A12AB
:100208008A11333083120313D600BB30D500DF3098
:10021800D400D40B0D29D50B0D29D60B0D290A16A0
:100228008A1117250A128A118430F6009030F700D7
:100238008030F8000A168A11DB250A128A11273045
:10024800F6009130F700C030F8000A168A11DB2555
:100258000A128A111130F6009030F700D030F800F9
:100268000A168A11DB250A128A11831203136B08F6
:10027800D400D5015408F2005508F3003C30F400CE
:100288000030F5000A168A11B6250A128A1183125F
:1002980003136A087207E20000300318013073077D
:1002A800E3006308E1006208E0006208F200630806
:1002B800F3000030F31BFF30F400F50001300A12A0
:1002C8008A112E270A128A11750883120313AD00AA
:1002D8007408AC007308AB007208AA003E30A9008D
:1002E800EB30A8008530A7001F30A6000A128A113B
:1002F800E9230A128A11831203132908C300280864
:10030800C2002708C1002608C0000A128A159420D6
:100318000A128A11831203134108E5004008E40019
:100328006208F2006308F3000030F31BFF30F400AA
:10033800F50001300A128A112E270A128A1175084F
:1003480083120313AD007408AC007308AB00720885
:10035800AA003D30A900F530A800C230A7008F30B0
:10036800A6000A128A11E9230A128A1183120313BA
:100378002908C3002808C2002708C1002608C000B1
:100388000A128A1594200A128A118312031341084B
:10039800E7004008E6006409D4006509D500D40ADE
:1003A8000319D50A66085402D6006708031C670AB1
:1003B8005502D7006208560783160313C400831238
:1003C800031363080318630A570783160313C5004A
:1003D80083120313071512151F305A06031DF5293A
:1003E800F629FA29071112110530EE006B08D4001E
:1003F800D5015408F2005508F3003C30F4000030F1
:10040800F5000A168A11B6250A128A1183120313F7
:100418006A087207E2000030031801307307E3002E
:1004280008307B020318192A1A2A792A64086002FC
:10043800D4006508031C650A6102D50055086302EB
:10044800031D282A54086202031C2B2A2C2A382A46
:100458006D30F6009130F7008B30F8000A168A11DB
:10046800DB250A128A112E2B6409D4006509D500F0
:10047800D40A0319D50A83160313440883120313F5
:100488005402D600831603134508031C450A831239
:1004980003135502D70060085607D80061080318EF
:1004A800610A5707D90059086302031D5D2A5808D5
:1004B8006202031C602A612A6D2A5630F6009130C8
:1004C800F7008B30F8000A168A11DB250A128A1108
:1004D8002E2B5030F6009130F7008B30F8000A16BA
:1004E8008A11DB250A128A112E2B08307B06031D80
:1004F8007E2A7F2A112B6208F2006308F30000307D
:10050800F31BFF30F400F50001300A128A112E2780
:100518000A128A11750883120313CB007408CA00E3
:100528007308C9007208C8006008F2006108F30087
:100538000030F31BFF30F400F50001300A128A1175
:100548002E270A128A11750883120313C70074082C
:10055800C6007308C5007208C4006008F20061088C
:10056800F3000030F31BFF30F400F50001300A12ED
:100578008A112E270A128A11750883120313AD00F7
:100588007408AC007308AB007208AA003E30A900DA
:10059800F530A800C230A7008F30A6000A128A11D1
:1005A800E9230A128A11831203132908C3002808B1
:1005B800C2002708C1002608C0000A168A11922521
:1005C8000A128A11831203134308CF004208CE008F
:1005D8004108CD004008CC000A128A150C210A12E5
:1005E8008A11031CF82AF92A052B5630F600913097
:1005F800F7008B30F8000A168A11DB250A128A11D7
:100608002E2B5030F6009130F7008B30F8000A1688
:100618008A11DB250A128A112E2B09307B06031D4D
:10062800162B172B232B5030F6009130F7008B3008
:10063800F8000A168A11DB250A128A112E2B4A3075
:10064800F6009130F7008B30F8000A168A11DB2586
:100658000A128A11C63083120313A0000A30F2006E
:100668000030F3006B08D400D5015408F400550895
:10067800F5000A128A152D200A128A117208303ED6
:100688000A128A11E8270A128A11C7308312031343
:10069800A0000A30F2000030F3006B08D400D50146
:1006A8005408F4005508F5000A168A11ED260A12B6
:1006B8008A117208303E0A128A11E8270A128A1132
:1006C800C83083120313A0003A300A128A11E827AF
:1006D8000A128A11C93083120313A0000A30F200EB
:1006E8000030F3006A08D400D5015408F400550816
:1006F800F5000A128A152D200A128A117208303E56
:100708000A128A11E8270A128A11CA3083120313BF
:10071800A0000A30F2000030F3006A08D400D501C6
:100728005408F4005508F5000A168A11ED260A1235
:100738008A117208303E0A128A11E8270A128A11B1
:10074800831203136A08031DAA2BAB2BE82B6B0833
:10075800031DAF2BB02BE82B0711121187140A16B3
:100768008A1117250A128A113130F6009030F700E5
:100778008030F8000A168A11DB250A128A114030E7
:10078800F6009030F700C030F8000A168A11DB2511
:100798000A128A11333083120313D600BB30D500F6
:1007A800DF30D400D40BD62BD50BD62BD60BD62BBB
:1007B800831203138710EE01EE0A1030ED000A16BB
:1007C8008A1117250A128A110800831203132908AF
:1007D8008039B3002908AE002E07B900A81FF52BF1
:1007E800F62BF72B391439080319FB2BFC2B0B2C90
:1007F800390A031D002C012C092C0030A9000030F7
:10080800A8000030A7000030A600A817132C00305D
:10081800A9000030A8000030A7000030A6002D086D
:100828008039FF007F08B3062D08AE002E07B400FC
:10083800AC1F1F2C202C212C341434080319252C10
:10084800262C352C340A031D2A2C2B2C332C003053
:10085800AD000030AC000030AB000030AA00AC178F
:100868003D2C0030AD000030AC000030AB00003053
:10087800AA0034080319412C422C472C3908031DBF
:10088800462C472C502C0030A9000030A80000301E
:10089800A7000030A6002D2F2608F2002C080A1207
:1008A8008A1504200A128A11730883120313BF00E1
:1008B8007208BE003E08AE00AF01B001B1013108B8
:1008C800B8003008B7002F08B6002E08B5003F085A
:1008D800AE00AF01B001B1013108BD003008BC0065
:1008E8002F08BB002E08BA002708F2002B080A12AE
:1008F8008A1504200A128A11730883120313BF0091
:100908007208BE003E08AE00AF01B001B1012E086A
:10091800B5072F0803110318013E0319942CB607D5
:10092800300803110318013E03199B2CB70731083F
:1009380003110318013E0319A22CB8073F08AE00A3
:10094800AF01B001B1012E08BA072F08031103182F
:10095800013E0319B02CBB07300803110318013EF0
:100968000319B72CBC07310803110318013E0319FA
:10097800BE2CBD072808F2002A080A128A1504208E
:100988000A128A11730883120313BF007208BE008B
:100998003E08AE00AF01B001B1012E08B5072F081F
:1009A80003110318013E0319DA2CB60730080311A6
:1009B8000318013E0319E12CB70731080311031886
:1009C800013E0319E82CB8073F08AE00AF01B0019B
:1009D800B1012E08BA072F0803110318013E0319A5
:1009E800F62CBB07300803110318013E0319FD2C30
:1009F800BC07310803110318013E0319042DBD0774
:100A08000830AE000310B50DB60DB70DB80DAE0B1E
:100A1800062D2708F2002A080A128A1504200A124D
:100A28008A11730883120313BF007208BE003E08C0
:100A3800AE003F08AF00B001B1012E08B5072F087E
:100A480003110318013E03192A2DB60730080311B4
:100A58000318013E0319312DB70731080311031894
:100A6800013E0319382DB8072608F2002B080A1290
:100A78008A1504200A128A11730883120313BF000F
:100A88007208BE003E08AE003F08AF00B001B101D9
:100A98002E08B5072F0803110318013E0319552D19
:100AA800B607300803110318013E03195C2DB70778
:100AB800310803110318013E0319632DB8070830E4
:100AC800AE000310B50DB60DB70DB80DAE0B652D04
:100AD8002608F2002A080A128A1504200A128A1126
:100AE800730883120313BF007208BE003E08AE00ED
:100AF8003F08AF00B001B1012E08B5072F08031158
:100B08000318013E0319892DB6073008031103188D
:100B1800013E0319902DB707310803110318013E50
:100B28000319972DB8072708F2002C080A128A150E
:100B380004200A128A11730883120313BF00720873
:100B4800BE003E08AE003F08AF00B001B1012E085C
:100B5800BA072F0803110318013E0319B42DBB0768
:100B6800300803110318013E0319BB2DBC073108D7
:100B780003110318013E0319C22DBD072808F2000E
:100B88002B080A128A1504200A128A117308831284
:100B98000313BF007208BE003E08AE003F08AF0056
:100BA800B001B1012E08BA072F0803110318013E3E
:100BB8000319DF2DBB07300803110318013E031981
:100BC800E62DBC07310803110318013E0319ED2D6A
:100BD800BD072808F2002C080A128A1504200A12F8
:100BE8008A11730883120313BF007208BE003E08FF
:100BF800AE003F08AF00B001B10108300310AE0DE0
:100C0800AF0DB00DB10DFF3E031D022E2E08BA0721
:100C18002F0803110318013E0319132EBB073008D0
:100C280003110318013E03191A2EBC0731080311DA
:100C38000318013E0319212EBD073508AE003608FA
:100C4800AF003708B0003808B10018300310B10CF5
:100C5800B00CAF0CAE0CFF3E031D2A2E2E08BA07AF
:100C68002F0803110318013E03193B2EBB07300858
:100C780003110318013E0319422EBC073108031162
:100C88000318013E0319492EBD070830AE000310B2
:100C9800B50DB60DB70DB80DAE0B4B2E3908340790
:100CA800AE00AF01AF0D2E08823EBE002F0803181C
:100CB800013EFF3EBF007D2E0130AE000310BA0D8D
:100CC800BB0DBC0DBD0DAE0B622EB81F6C2E6D2E6C
:100CD8006E2E3A140130AE000310B50DB60DB70DE7
:100CE800B80DAE0B702EFF30BE070318BF0AFF30D9
:100CF800BF07BC1F802E812E602EB401B81F852E21
:100D0800862EA22EFF303505AE00FF303605AF0027
:100D1800FF303705B0007F303805B10031083004A6
:100D28002F042E040319992E9A2E9D2EB401B40A6D
:100D3800A22E3A1CA02EA12EA22E9A2E34080319F8
:100D4800A62EA72ED82E0130BA070030031801307E
:100D5800BB07003003180130BC070030031801300E
:100D6800BD073D1CB82EB92ED82E3A08AE003B0858
:100D7800AF003C08B0003D08B1000130B200310DB1
:100D8800B10CB00CAF0CAE0CB20BC32E3108BD00C9
:100D98003008BC002F08BB002E08BA000130BE077F
:100DA8000318BF0A0030BF073F08803AFF008030B1
:100DB8007F02031DE12EFF303E02031CE42EE52EC8
:100DC800F02E7F3083120313BD008030BC0000304A
:100DD800BB000030BA00212F831203133F08803A6A
:100DE800FF0080307F02031DFB2E01303E020318F6
:100DF800FE2EFF2E0B2F003083120313BD00003090
:100E0800BC000030BB000030BA00B301212F8312B0
:100E180003133E08B900FF30BA05FF30BB057F3029
:100E2800BC050030BD05391C1A2F1B2F1C2FBC1701
:100E38003908AE0003102E0CBD003308FF007F08F0
:100E4800BD043D08A9003C08A8003B08A7003A08D3
:100E5800A600080083120313A00020080319352FE9
:100E6800362F4A2FF51F392F3A2F4A2F7209A20021
:100E78007309A3007409A4007509A500A20A03193F
:100E8800A30A0319A40A0319A50A522F7508A50075
:100E98007408A4007308A3007208A20075087404FB
:100EA80073047204031D592F5A2F632F0030F50065
:100EB8000030F4000030F3000030F200E72F9630E5
:100EC800A100732F0130FF007F08A1070130031034
:100ED800A50CA40CA30CA20CFF3E031D6B2FFE3027
:100EE8002505031D782F792F662F952F0130FF00D8
:100EF8007F08A1070130A207003003180130A307BB
:100F0800003003180130A407003003180130A5078A
:100F180001300310A50CA40CA30CA20CFF3E031D6A
:100F28008D2FFF302505031D9A2F9B2F7A2FA72F72
:100F38000130A1020130F6000310A20DA30DA40D8B
:100F4800A50DF60BA02FA41BAA2FAB2FB12F023093
:100F580021020318B02FB12F9C2F2118B42FB52FC1
:100F6800BD2FFF30A205FF30A3057F30A405FF3059
:100F7800A5050310A10C2108F600F701F801F901F5
:100F880018300310F60DF70DF80DF90DFF3E031D8F
:100F9800C52F7608A2047708A3047808A404790862
:100FA800A50420080319D92FDA2FDF2FF51FDD2F0D
:100FB800DE2FDF2FA5172508F5002408F4002308E5
:100FC800F3002208F200080083120313A100F201C3
:100FD80020080A168A1150250A128A11F201F20A0B
:100FE8008312031321080A168A1150250A128A113E
:080FF80008000134103401343B
:1010080083120313A400A001A1017208F400F501E2
:101018007408A2007508A300241C132814281A2891
:101028002208A0070318A10A2308A107013003100A
:10103800A20DA30DFF3E031D1B280310A40C2408BA
:10104800031D2728282810282108F3002008F2006B
:101058000800F701F31F312832283928F209F3096B
:10106800F20A0319F30AF701F70AF51F3C283D288D
:101078004628F409F509F40A0319F50A0130FF00B6
:101088007F08F706F801F9017208730403194D285F
:101098004E288528F601F60A5C2801300310F20D67
:1010A800F30DFF3E031D52280130FF007F08F607AD
:1010B800F31F5F286028512801300310F80DF90D3F
:1010C800FF3E031D612873087502031D6D28720811
:1010D8007402031C7028712878287208F4027308B7
:1010E800031CF503F502781401300310F30CF20C1D
:1010F800FF3E031D79280130F602031D8428852848
:1011080060287708031989288A288F28F809F90997
:10111800F80A0319F90A7908F3007808F2000800B8
:10112800031083120313420D430DC9004908031D20
:101138009E289F28A8280030C3000030C200003035
:10114800C1000030C0000B294008C4004108C50098
:101158004208C6004308C7001F300310C70CC60C5E
:10116800C50CC40CFF3E031DB1284408C800C217B3
:10117800FF30C005FF30C105FF30C2050030C30590
:101188009630C902C91FC928CA28E4284908803AE4
:10119800973E0318D028D128D2289F280130031061
:1011A800C30CC20CC10CC00CFF3E031DD328013078
:1011B800FF007F08C907031DE228E328D228FB287F
:1011C80020304902031CE928EA28F6289F28013024
:1011D800C4000310C00DC10DC20DC30DC40BED2812
:1011E8000130C9024908031DFA28FB28EB284808E2
:1011F8000319FF2800290B29C009C109C209C3091D
:10120800C00A0319C10A0319C20A0319C30A08004C
:101218000030831203134805D00000304905D1007F
:1012280080304A05D2007F304B05D3005308520462
:1012380051045004031D212922292A290030CB00FA
:101248000030CA000030C9000030C80000304C052A
:10125800D00000304D05D10080304E05D2007F30DF
:101268004F05D3005308520451045004031D3D296F
:101278003E2946290030CF000030CE000030CD0096
:101288000030CC00CB1F49294A296E290030D000F4
:101298000030D1000030D2008030D3004808D0029E
:1012A8004908031C490F59295A29D1024A08031C25
:1012B8004A0F5F296029D2024B08031C4B0F65298E
:1012C8006629D3025308CB005208CA005108C90046
:1012D8005008C800CF1F7129722996290030D00004
:1012E8000030D1000030D2008030D3004C08D0024A
:1012F8004D08031C4D0F81298229D1024E08031C79
:101308004E0F87298829D2024F08031C4F0F8D29B9
:101318008E29D3025308CF005208CE005108CD00C1
:101328005008CC008030CB068030CF064F084B02E7
:10133800031DA8294E084A02031DA8294D08490281
:10134800031DA8294C0848020318AB29AC29AE296B
:101358000310AF29031408007D2A213083120313D8
:10136800EA00EB01A32A293083120313EA00B52906
:101378002D3083120313EA00B5297A08003A0319BD
:10138800B729013A0319B129033A0319B729013AD0
:101398000319BC29073A0319BC29A32A2B30831245
:1013A8000313EA00B529323083120313EA00B52982
:1013B800393083120313EA00B5297A08003A031971
:1013C800D729013A0319D229033A0319D729013A2F
:1013D8000319DC29073A0319DC29A32A1A308312D6
:1013E8000313EA00B5291F3083120313EA00B52955
:1013F8007A08003A0319F229013A0319F229033A43
:101408000319F229013A0319F729073A0319F729A9
:10141800A32A103083120313EA00EB01EB0AA32A74
:10142800243083120313EA00112A24308312031391
:10143800EA00B5291D3083120313EA00B5292E30BE
:1014480083120313EA00B529353083120313EA0027
:10145800B52983120313EA01112A7A08003A0319FD
:10146800282A013A0319232A033A0319282A013A98
:1014780003192D2A073A03192D2AA32A1230831299
:101488000313EA00B529143083120313EA00B529BF
:101498007A08003A0319472A013A0319422A033AFB
:1014A8000319472A013A0319472A073A0319472A11
:1014B800A32A063083120313EA00B52910308312D9
:1014C8000313EA00B529153083120313EA00B5297E
:1014D8007A08003A0319672A013A0319622A033A7B
:1014E8000319672A013A0319F229073A0319F2295D
:1014F800A32A7B08003A0319C129013A0319E129F3
:10150800033A0319FC29013A03190D2A073A03196A
:10151800142A013A0319192A033A03191E2A013A0F
:101528000319312A0F3A03194C2A013A03195D2A83
:10153800033A03196C2A013A03196C2AA32A0800F2
:1015480083120313A40010306D06031DAC2AAD2AC4
:10155800B32A0A168A1117250A128A15FB01373091
:10156800831203132406031DBA2ABB2ACB2A01308F
:10157800FF007F08FB070A168A1117250A128A1529
:101588000C307B06031DC92ACA2ACB2AFB0100306E
:10159800F6009030F7008030F8000A168A11DB2533
:1015A8000A128A15C03083120313A0002A300A12C7
:1015B8008A11E8270A128A150A307B020318E52ADD
:1015C800E62A262B7B0883120313A2002207A03EDB
:1015D800840083130008F600840A00088403F700D7
:1015E800C230F8000A168A11DB250A128A157B0810
:1015F80083120313A2002207A23E8400831300086B
:10160800F600840A00088403F7009230F8000A16EE
:101618008A11DB250A128A157B0883120313A2009C
:101628002207A43E840083130008F600840A0008F9
:101638008403F700D230F8000A168A11DB250A1253
:101648008A15A12B0A307B06031D2B2B2C2B642B10
:101658007B0883120313A2002207A03E8400831391
:101668000008F600840A00088403F700C230F80076
:101678000A168A11DB250A128A157B0883120313BE
:10168800A2002207A23E840083130008F600840A01
:1016980000088403F7009230F8000A168A11DB2547
:1016A8000A128A15831603132008F6002108F7008A
:1016B800D230F8000A168A11DB250A128A15A12BE6
:1016C8000A307B06031D692B6A2BA12B7B0883122A
:1016D8000313A2002207A03E840083130008F6002B
:1016E800840A00088403F700C230F8000A168A1139
:1016F800DB250A128A157B0883120313A20022072E
:10170800A23E840083130008F600840A00088403BC
:10171800F7009230F8000A168A11DB250A128A159A
:10172800831603132008F6002108F700D230F800CA
:101738000A168A11DB250A128A1508008312031378
:10174800A40011306D06031DAA2BAB2BB12BFA0197
:101758000A168A1117250A128A15373083120313BD
:101768002406031DB82BB92BC92B0130FF007F08B5
:10177800FA0705307A06031DC22BC32BC42BFA01C6
:101788000A168A1117250A128A155D30F60090305C
:10179800F7008030F8000A168A11DB250A128A152C
:1017A800C03083120313A0002A300A128A11E827D6
:1017B8000A128A1503307A020318E32BE42B242C2F
:1017C8007A0883120313A2002207B83E8400831309
:1017D8000008F600840A00088403F700C230F80005
:1017E8000A168A11DB250A128A157A08831203134E
:1017F800A2002207BA3E840083130008F600840A78
:1018080000088403F7009230F8000A168A11DB25D5
:101818000A128A157A0883120313A2002207BC3E13
:10182800840083130008F600840A00088403F70084
:10183800D230F8000A168A11DB250A128A159F2C65
:1018480003307A06031D292C2A2C6A2C7A08831265
:101858000313A2002207B83E840083130008F60091
:10186800840A00088403F700C230F8000A168A11B7
:10187800DB250A128A157A0883120313A2002207AD
:10188800BA3E840083130008F600840A0008840323
:10189800F7009230F8000A168A11DB250A128A1519
:1018A8007A0883120313A2002207BC3E8400831324
:1018B8000008F600840A00088403F700D230F80014
:1018C8000A168A11DB250A128A159F2C04307A061B
:1018D800031D6F2C702C9F2C7A0883120313A2000F
:1018E8002207B83E840083130008F600840A000823
:1018F8008403F700C230F8000A168A11DB250A12A1
:101908008A15831603133808F6003908F700923051
:10191800F8000A168A11DB250A128A1583160313A2
:101928003A08F6003B08F700D230F8000A168A1188
:10193800DB250A128A1508000A168A1137250A12A9
:101948008A1501300A168A11A1270A128A154F3002
:10195800F6009030F7008130F8000A168A11DB256E
:101968000A128A150530F6009130F700C430F800E5
:101978000A168A11DB250A128A152130F6009030E2
:10198800F7009130F8000A168A11DB250A128A1529
:10199800E12CB83083120313DB000B30DC0001307C
:1019A800DB020030031CDC03DC025B0A031DE02CB5
:1019B8005C0A031DE02CE12CD32C01300A168A1195
:1019C800A1270A128A152F3A031DEB2CEC2CCD2CDB
:1019D8000A168A1146270A128A1501300A168A1130
:1019E800A1270A128A1583120313DF00B830DD001D
:1019F8000B30DE000130DD020030031CDE03DE02A6
:101A08005D0A031D0B2D5E0A031D0B2D0C2DFE2CEC
:101A1800B7305F06031D112D122D1C2D6E03031DFB
:101A2800162D172D1C2D0230EE001130ED00572D0C
:101A3800B7305F06031D212D222D572D02306E066B
:101A4800031D272D282D572D0A128A15B0210A1299
:101A58008A15033083120313EE000A168A1117251C
:101A68000A128A157730F6009030F7008130F800B6
:101A78000A168A11DB250A128A15A830F60090305A
:101A8800F700C130F8000A168A11DB250A128A15F8
:101A9800C930F6009030F7009130F8000A168A1124
:101AA800DB250A128A152F30831203135F06031DE4
:101AB8005E2D5F2D932D05306E06031D642D652D5B
:101AC800932D121507150430EE00932D5F080A12A6
:101AD8008A15A4220A128A15A12D5F080A128A15EE
:101AE800A2230A128A15A12D2F305F06031D7D2D12
:101AF8007E2D832D0430EE001230ED00F12C1F30C6
:101B08005F06031D882D892DA12D1030ED00F12CC5
:101B18005F080A128A1144200A128A15A12D6E083C
:101B2800013A03196A2D033A0319712D013A031971
:101B3800782D073A03198C2DA12D83120313ED017B
:101B4800F12C0A128A110C287508803983120313A4
:101B5800A8007508A0002007AA00F41FB42DB52D11
:101B6800B62D2A142A080319BA2DBB2DCB2D2A0A03
:101B7800031DBF2DC02DC82D0030F5000030F40026
:101B88000030F3000030F200F417F501D32D0030D7
:101B9800F5000030F4000030F3000030F20079085E
:101BA8008039A900290828060319DB2DDC2DDD2D35
:101BB80028177908A0002007A900F81FE42DE52DB3
:101BC800E62D291429080319EA2DEB2DFB2D290AE6
:101BD800031DEF2DF02DF82D0030F9000030F8002E
:101BE8000030F7000030F600F817F901032E003036
:101BF800F9000030F8000030F7000030F6002A083D
:101C080029020318082E092E2F2E281F0C2E0D2E00
:101C1800112E8030FF007F08A8062A08AB0029088B
:101C2800AA002B08A9007208AB007608F2002B085E
:101C3800F6007308AB007708F3002B08F700740868
:101C4800AB007808F4002B08F8007508AB00790899
:101C5800F5002B08F900AB012908A000A101210813
:101C6800A3002A082002A200031CA3032308803A29
:101C7800FF0080307F02031D432E1A302202031C0E
:101C8800462E472E7E2E7508740473047204031DB5
:101C98004E2E502E0130512E003083120313AB000C
:101CA8000030F5000030F4000030F3000030F2009E
:101CB8002908AA00862E2B1C622E632E6A2E2B085A
:101CC800A0000310200C0138AB006C2E0310AB0CE5
:101CD800721C6F2E702E712EAB170130A000750D7F
:101CE800F50CF40CF30CF20CA00B732E0130FF0072
:101CF8007F08AA078312031329082A02031C852ECA
:101D0800862E5F2E281B892E8A2ED32E2A08031D85
:101D18008E2E8F2E982E0030F5000030F400003003
:101D2800F3000030F200FF2F7608F207770803115E
:101D38000318013E0319A12EF307780803110318AD
:101D4800013E0319A82EF407790803110318013E70
:101D58000319AF2EF507751CB22EB32E872F2B1C37
:101D6800B62EB72EBE2E2B08A0000310200C01386B
:101D7800AB00C02E0310AB0C721CC32EC42EC52E94
:101D8800AB170130A000750DF50CF40CF30CF20C38
:101D9800A00BC72E0130FF007F08AA07872F750800
:101DA800803AFF007908803A7F02031DE52E780803
:101DB8007402031DE52E77087302031DE52E7608CD
:101DC80072020318E82EE92E412FFF30A000FF30E1
:101DD800A100FF30A200FF30A3007608A400770816
:101DE800A5007808A6007908A7007208A40273085D
:101DF800031C730F002F012FA5027408031C740F16
:101E0800062F072FA6027508031C750F0C2F0D2F20
:101E1800A7022408A00725080318250F142F152F3B
:101E2800A10726080318260F1A2F1B2FA207270819
:101E38000318270AA3072308F5002208F40021083D
:101E4800F3002008F2008030FF007F08A806AB09E5
:101E5800AB0A2B08031D312F322F4F2F0130F20709
:101E6800003003180130F307003003180130F4077D
:101E7800003003180130F5074F2F7608F202770873
:101E8800031C770FF3027808031C780FF402790813
:101E9800031C790FF5027508740473047204031D9A
:101EA800562F572F832F2B08031D5B2F5C2F832F53
:101EB8000030F5000030F4000030F3000030F2008C
:101EC800FF2F0130A0000310F20DF30DF40DF50DF6
:101ED800A00B672FAB1F712F722F732F72142B1C3F
:101EE800762F772F7A2F0314AB0D7C2F0310AB0DB1
:101EF8002A080319802F812F832F0130AA02F41F8B
:101F0800862F872F652FA901AB1F8B2F8C2F9A2F18
:101F18002B087F390319912F922F952FA901A90A10
:101F28009A2F721C982F992F9A2F922F29080319EC
:101F38009E2F9F2FD32F0130F20700300318013056
:101F4800F307003003180130F4070030031801309C
:101F5800F507751CB02FB12FD32F7208A000730896
:101F6800A1007408A2007508A3000130A400230D85
:101F7800A30CA20CA10CA00CA40BBB2F2308F500EA
:101F88002208F4002108F3002008F2002A0A0319A5
:101F9800CE2FCF2FD32F0130FF007F08AA072A0AA0
:101FA8000319D72FD82FDD2F2A08031DDC2FDD2F8B
:101FB800EB2F0030F5000030F4000030F300003063
:101FC800F2002A08031DE92FEA2FEB2FA8012A1C8B
:101FD800EE2FEF2FF12FF417F52F7F30FF007F083A
:101FE800F4052A08A0000310200CF500A81FFD2FF7
:101FF800FE2FFF2FF5170800573461347334683407
:1020080069346E3467342034503472346F34673432
:10201800723461346D347334003435342D345334B0
:1020280054344134523454342034203436342D342A
:102038005034553453344534003457346134733490
:10204800683469346E34673420344D346134633411
:10205800683469346E3465340034503472346F3403
:1020680067342E3443346F346D3470346C346534D3
:102078007434653464340034523465346D346F34E8
:1020880076346534203443346C346F3474346834B3
:1020980065347334003450347234653473347334B3
:1020A80020344B34653479343534203454346F3427
:1020B80000345734613474346534723420344C3409
:1020C8006534763465346C343A34003450346C34C6
:1020D8006534613473346534203443346C346F347C
:1020E8007334653400345034723465347334733463
:1020F80020345334773469347434633468340034A6
:10210800463475346E346334743469346F346E34E1
:1021180020342D342034003444346F346F34723416
:1021280020343A3420344F34503445344E3400345B
:1021380050346F3477346534723469346E346734AC
:1021480020344F344E3400345334573435343A3411
:1021580020345334543441345234543400344134E8
:102168007134753461342034733474346F34723498
:1021780065340034453463346F3443346F34743415
:1021880074346F346E347334003453345734363403
:102198003A342034533454344F34503400345334A4
:1021A8007434613469346E34773461347334683428
:1021B8000034443465346C346934633461347434C1
:1021C80065347334003442346534643473346834A9
:1021D800653465347434733400345734613473347B
:1021E800683420346F346E346C34793400345234AB
:1021F80069346E34733465342B344434723479342E
:10220800003450346F3477346534723420344F34AA
:102218004E34003444347234793420346F346E349C
:102228006C347934003428344D344D343A345334D2
:1022380053342934003457346F346F346C34653474
:102248006E3473340034543449344D3445343A349C
:1022580020340034543469346D3465343A342034CD
:102268000034503472346F3467343A3420340034D4
:102278004D3465346434693475346D3400345734FE
:1022880068346934743465347334003457346134D1
:1022980073346834203400345334703469346E3401
:1022A80020340034523469346E3473346534003465
:1022B8004434613469346C347934003448346534D6
:1022C8006134763479340034483469346734683496
:1022D800003457346134733468340034413475340D
:1022E80074346F3400344C346F34773400344D34E4
:1022F800613478340034FF1B892983137F188317CE
:102308000008840A0319FF0A08007F087F398A0039
:0A2318000408840A0319FF0A82007A
:1029FA008316031306083F3886000800FA30831648
:102A0A00031392008C148312031312110800831605
:102A1A0003138801091189100A168A1144260A1615
:102A2A008A110800F20101300A168A1150250A1685
:102A3A008A11A630F600F60B202D000008007E0849
:102A4A008A007F0882000A168A1124250A168A112A
:102A5A008000840A04087D0603190034FF0A03195A
:102A6A00FE0A282D0A168A11FD240A168A110A1648
:102A7A008A110C250A168A11831603130711871067
:102A8A008312031387100A168A1103250A168A115C
:102A9A000B178B170800F5007218542D582D831246
:102AAA00031309155B2D8312031309117508880096
:102ABA008914A630F300F30B602D00008312031370
:102ACA0089101B30F4009E30F300F30B6A2DF40BCF
:102ADA006A2D000008005C34913462349134DD348C
:102AEA00903443349134D3349034BE3490341F3408
:102AFA009134E7349034FB3490340E349134F13409
:102B0A009034B334903472349134773491343C3401
:102B1A009134683491347B349134803083120313B6
:102B2A00C3064708F5004608F4004508F3004408C0
:102B3A00F2004308F9004208F8004108F70040088B
:102B4A00F6000A128A15A8250A168A117508831230
:102B5A000313C3007408C2007308C1007208C000DE
:102B6A000800F601F701721CBB2DBC2DC22D74089A
:102B7A00F6070318F70A7508F70701300310F40D72
:102B8A00F50DFF3E031DC32D01300310F30CF20CAB
:102B9A00FF3E031DCA2D72087304031DD52DD62DC1
:102BAA00B82D7708F3007608F2000800F2017808D9
:102BBA000A168A1150250A168A11F92DF201F20A0B
:102BCA007708FF00760884000A168A117F210A1600
:102BDA008A110A168A1150250A168A110130F60737
:102BEA000318F70A0030F707770883120313FF0068
:102BFA00760884000A168A117F210A168A11003A79
:102C0A00031D082E092EE32D0800831203138C1CC2
:102C1A000F2E102E3D2E013083160313C207031800
:102C2A00C30A0030C307203042064E300319430658
:102C3A00031D202E212E3B2EC201C3018312031332
:102C4A006A080319292E2A2E2D2E0130EA023B2E5C
:102C5A006A08031D312E322E3B2E6B080319362EBD
:102C6A00372E3B2E0130EB023B30EA0083128C10E8
:102C7A0071088A00700E8300FE0E7E0E0900C330B2
:102C8A00F700CD30F600F60B482EF70B482EF2016E
:102C9A0033300A168A1150250A168A111B30F7009A
:102CAA009E30F600F60B572EF70B572E0000F20156
:102CBA0033300A168A1150250A168A11A630F600F0
:102CCA00F60B652E0000F20133300A168A115025E0
:102CDA000A168A11702E712E0000F20130300A167F
:102CEA008A1150250A168A11A630F600F60B7B2E99
:102CFA000000F20101300A168A1150250A168A11BB
:102D0A00A630F600F60B872E0000F2010C300A16E8
:102D1A008A1150250A168A11A630F600F60B932E50
:102D2A00000008008312031306189C2E9D2EEC2E19
:102D3A000711121187140A168A1117250A168A1101
:102D4A009030F6009030F7008030F8000A168A11A9
:102D5A00DB250A168A116A30F6009030F7009030A7
:102D6A00F8000A168A11DB250A168A118312031340
:102D7A00061CC02EC12EBB2E0A168A1117250A164A
:102D8A008A118430F6009030F7008030F8000A1675
:102D9A008A11DB250A168A112730F6009130F700CE
:102DAA00C030F8000A168A11DB250A168A1111307A
:102DBA00F6009030F700D030F8000A168A11DB25A9
:102DCA000A168A11831203130715121587100800B1
:102DDA00F701F51FF12EF22EF92EF409F509F40A7E
:102DEA000319F50AF701F70AF31FFC2EFD2E022F2D
:102DFA00F209F309F20A0319F30A720873040319B0
:102E0A00072F082F372FF601F60A162F0130031065
:102E1A00F20DF30DFF3E031D0C2F0130FF007F085A
:102E2A00F607F31F192F1A2F0B2F73087502031DAC
:102E3A00202F72087402031C232F242F2A2F7208B2
:102E4A00F4027308031CF503F50201300310F30CB6
:102E5A00F20CFF3E031D2B2F0130F602031D362F05
:102E6A00372F1A2F770803193B2F3C2F412FF409CC
:102E7A00F509F40A0319F50A7508F3007408F20053
:102E8A00080083120313A5012508803EA000FF3025
:102E9A000A128A11E8270A168A110130FF007F08F0
:102EAA0083120313A50710302502031C5D2F5E2F22
:102EBA00492F9C30F6009030F700C230F8000A160D
:102ECA008A11DB250A168A112130F6009030F700A4
:102EDA009130F8000A168A11DB250A168A11831224
:102EEA000313A6012608D03EA000FF300A128A1159
:102EFA00E8270A168A110130FF007F08831203139C
:102F0A00A60710302602031C8B2F8C2F772F1A301E
:102F1A0083120313A4005E30A3006D30A200A20B3B
:102F2A00942FA30B942FA40B942F9B2F0A168A116C
:102F3A0017250A168A110800F3007308031DA62F25
:102F4A00A72FAC2F8312031306083F39FF2F3F30F8
:102F5A00831203130605F2003F3072060319B62FD7
:102F6A00B72FC22F6C080319BB2FBC2FC22FEC013D
:102F7A00E90106083F39E800FE2F6C08031DC62F39
:102F8A00C72FD92F06083F396806031DCD2FCE2F2C
:102F9A00D92F1E3069020318D32FD42FD92F01300D
:102FAA00FF007F08E907FE2F1E306906031DDE2F8A
:102FBA00DF2FE62F0130FF007F08E9076808803815
:102FCA00FF2F3F300605F2003F307206031DEE2F39
:102FDA00EF2FFE2F6C08031DF32FF42FFE2FEC01A9
:102FEA00EC0A1E3069020318FB2FFC2FFE2F68081B
:062FFA00FF2F3F3008002C
:02400E00FB3F76
:00000001FF
